:100000000C9434000C9446000C9446000C9446006A
:100010000C9446000C9446000C9446000C94460048
:100020000C9446000C9446000C9446000C94460038
:100030000C9446000C9446000C9446000C94460028
:100040000C9446000C9446000C9446000C94460018
:100050000C9446000C9446000C9446000C94460008
:100060000C9446000C94460011241FBECFEFD8E03C
:10007000DEBFCDBF21E0A0E0B1E001C01D92AF3FE7
:10008000B207E1F70E94BD000C94C2000C9400007E
:1000900088E18093C1001092C50089E18093C4007B
:1000A000E2ECF0E08081866080838081877F8083BE
:1000B0000895CF93C82F8091C00085FFFCCFCA3030
:1000C00021F0C093C600CF9108958DE00E945900A1
:1000D000C093C600CF9108950F931F93CF93FC0157
:1000E000C081CC2381F08C010F5F1F4F8091C00035
:1000F00085FFFCCFCA3059F0C093C600F801C1910A
:100100008F01C111F3CFCF911F910F9108958DE011
:100110000E945900F1CF8091C00087FFFCCF8091F1
:10012000C6008D3019F08091C60008958AE0809352
:10013000C6000895CF938091C00087FFFCCF8091C7
:10014000C6008D3069F0C091C6009C2F8091C00020
:1001500085FFFCCF9A3051F0C093C600CF9108952F
:100160008AE08093C600CAE09AE0F0CF8DE00E945A
:100170005900C093C600CF9108950E9448000E9484
:080180009A00FDCFF894FFCFB7
:00000001FF
