:100000000C9434000C9451000C9451000C94510049
:100010000C9451000C9451000C9451000C9451001C
:100020000C9451000C9451000C9451000C9451000C
:100030000C9451000C9451000C9451000C945100FC
:100040000C9451000C9451000C9451000C945100EC
:100050000C9451000C9451000C9451000C945100DC
:100060000C9451000C94510011241FBECFEFD8E026
:10007000DEBFCDBF11E0A0E0B1E0E4E1F2E002C0FC
:1000800005900D92A631B107D9F722E0A6E1B1E0C3
:1000900001C01D92A831B207E1F70E94E9000C945B
:1000A00008010C94000088E18093C1001092C50003
:1000B00089E18093C400E2ECF0E080818660808377
:1000C0008081877F808308959091C00095FFFCCF49
:1000D0008093C6008D3011F48AE0F6CF0895FC01BC
:1000E0009081992371F031968091C00085FFFCCFFB
:1000F0009093C6009D3011F49AE0F6CF9191911142
:10010000F3CF08958091C00087FFFCCF8091C60097
:1001100008958091C00087FFFCCF8091C600809336
:1001200017028D3089F08F3274F0209116013091D2
:100130001701F901E85EFE4F80832F5F3F4F309338
:100140001701209316010895E0911601F09117010F
:10015000E85EFE4F80838AE081831282109217014D
:100160001092160108950E948900909117028091C3
:10017000C00085FFFCCF9093C6009D3011F49AE03B
:10018000F6CF089560E071E088E191E00E94FF0001
:10019000892BD9F065E071E088E191E00E94FF00D1
:1001A000892B99F06AE071E088E191E00E94FF00FC
:1001B0009C01892B61F060E171E088E191E00E948F
:1001C000FF009C01892B19F0089521E030E0C9015E
:1001D0000895239A0E9453000E94B3000E94C20017
:1001E0008130910551F0892BB9F72B9A0E94B30009
:1001F0000E94C20081309105B1F72B98EDCFFB0131
:10020000DC018D91019080190110D9F3990B0895AB
:04021000F894FFCF90
:100214006F6E0D0A004F4E0D0A006F66660D0A00E0
:060224004F46460D0A00E2
:00000001FF
