:100000000C9434000C9449000C9449000C94490061
:100010000C9449000C9449000C9449000C9449003C
:100020000C9449000C9449000C9449000C9449002C
:100030000C9449000C9449000C9449000C9449001C
:100040000C9449000C9449000C9449000C9449000C
:100050000C9449000C9449000C9449000C944900FC
:100060000C9449000C94490011241FBECFEFD8E036
:10007000DEBFCDBF11E0A0E0B1E0E4E3F1E002C0FB
:1000800005900D92A630B107D9F70E947A000C9422
:1000900098000C94000088E18093C1001092C50084
:1000A00089E18093C400E2ECF0E080818660808387
:1000B0008081877F808308959091C00095FFFCCF59
:1000C0008093C6008A3011F48DE0F6CF0895FC01CC
:1000D0009081992371F031968091C00085FFFCCF0B
:1000E0009093C6009A3011F49DE0F6CF9191911152
:1000F000F3CF0895219A0E944B00C2E085B18C276E
:1001000085B980E091E00E9467008FE40E945C0066
:100110008EE40E945C008AE00E945C002FEF83EC7A
:1001200099E0215080409040E1F700C00000E6CF08
:04013000F894FFCF71
:0601340041534D410A0099
:00000001FF
