:100000000C9434000C9451000C9451000C94510049
:100010000C9451000C9451000C9451000C9451001C
:100020000C9451000C9451000C9451000C9451000C
:100030000C9451000C9451000C9451000C945100FC
:100040000C9451000C9451000C9451000C945100EC
:100050000C9451000C9451000C9451000C945100DC
:100060000C9451000C94510011241FBECFEFD8E026
:10007000DEBFCDBF11E0A0E0B1E0E4E2F2E002C0FB
:1000800005900D92A631B107D9F721E0A6E1B1E0C4
:1000900001C01D92AD32B207E1F70E94F1000C944D
:1000A00010010C94000088E18093C1001092C500FB
:1000B00089E18093C400E2ECF0E080818660808377
:1000C0008081877F808308959091C00095FFFCCF49
:1000D0008093C6008D3011F48AE0F6CF0895FC01BC
:1000E0009081992371F031968091C00085FFFCCFFB
:1000F0009093C6009D3011F49AE0F6CF9191911142
:10010000F3CF08958091C00087FFFCCF8091C60097
:1001100008958091C00087FFFCCF8091C600809336
:1001200018018D30A1F08F328CF0209116013091A2
:100130001701F901E75EFE4F808324313105B4F4E5
:100140002F5F3F4F30931701209316010895E091E0
:100150001601F0911701E75EFE4F80838AE08183EC
:100160001282109217011092160108951092170131
:100170001092160108950E948900909118018091B3
:10018000C00085FFFCCF9093C6009D3011F49AE02B
:10019000F6CF089560E071E089E191E00E940701E7
:1001A000892BD9F065E071E089E191E00E940701B7
:1001B000892B99F06AE071E089E191E00E940701E2
:1001C0009C01892B61F060E171E089E191E00E947E
:1001D00007019C01892B19F0089521E030E0C90145
:1001E0000895229A0E9453000E94BB000E94CA00F8
:1001F0008130910551F0892BB9F72A9A0E94BB00F2
:100200000E94CA0081309105B1F72A98EDCFFB0119
:10021000DC018D91019080190110D9F3990B08959B
:04022000F894FFCF80
:100224006F6E0D0A004F4E0D0A006F66660D0A00D0
:060234004F46460D0A00D2
:00000001FF
